:2000000024C033C032C031C030C02FC02EC02DC02CC02BC02AC0ECC028C027C026C025C065
:2000200024C023C0F7C721C024C81FC01EC01DC01CC01BC050C951C960C951C952C953C970
:2000400054C955C956C955C956C911241FBECFEFD4E0DEBFCDBF22E0A0E0B1E001C01D92D9
:20006000A739B207E1F7E7D077CACACF82E491E000C9CF92DF92EF92FF920F931F93CF9344
:20008000DF9380910E0183FFAAC0D9D8E2E5F1E0DC012D91CD012193B1E0EB35FB07C1F711
:2000A000D9D880910E01877F80930E0113D5811196C033D58A3209F443C070F48832B9F1EB
:2000C000893209F08CC04091000150910101609102017091030179C08C3209F45FC008F463
:2000E0004DC08D3209F07BC0C0915501D0E0CE013FD1C82ED12CE12CF12CFE2CED2CDC2C62
:20010000CC24CE01019634D1C82AFE2CED2CDC2CCC24CE0102962CD1C82AFE2CED2CDC2CB6
:20012000CC24CE01039624D1B701A6014DC04091040150910501609106017091070145C043
:2001400068E171E08FEF1DD240911C0150E060E070E0762F652F542F442780911B01482B23
:20016000762F652F542F442780911A01482B762F652F542F44278091190126C068E171E0E7
:200180008FEFFFD140911E0150E060E070E0762F652F542F442780911D0116C0E09055016F
:2001A000F12C06E511E0C0E0D0E0F80161918F01CE018E0D9F1D8CD02196C430D105A9F7D8
:2001C00040E050E0BA0101C0482B84E6DF91CF911F910F91FF90EF90DF90CF9063C4DF91E3
:2001E000CF911F910F91FF90EF90DF90CF9008951F920F920FB60F9211242F933F934F9373
:200200005F936F937F938F939F93AF93BF93EF93FF93FDD7FF91EF91BF91AF919F918F9118
:200220007F916F915F914F913F912F910F900FBE0F901F901895229A2A9A529AE5D34DD79F
:2002400083E699E090930A018093090186E390E090930C0180930B0180E190E0EAD38091AA
:2002600081008860809381008091810085608093810080E38093890081E780938800809163
:200280006F00826080936F0086B386BB2FE088E190E00FB6F894A895809360000FBE2093A8
:2002A00060007894A89528D7E4DE04D2609304017093050180930601909307014BD26093A8
:2002C0000001709301018093020190930301EACFEF92FF920F931F93CF93DF93EC01F62ED7
:2002E000C11582E0D807D0F517D18CEC38D18FE036D18C2F34D10D2F1127802F30D18F2DA3
:200300002ED10AD18CEC2BD18AEA29D138D1282F30E0AE0155274217530711F082E021C08F
:200320002ED1282F30E002171307C1F728D1E82E26D1F81215C0F0D08CEC11D185E50FD123
:200340008C2F0DD1802F0BD18E2D09D18FE19EE40197F1F700C0000080E003C081E001C06D
:2003600083E0DF91CF911F910F91FF90EF9008951F93CF93DF931F92CDB7DEB7182F99839C
:20038000CBD08CECECD080EFEAD0812FE8D09981892FE5D0F4D0182FBFD0812F0F90DF911D
:2003A000CF911F9108953D9885E090E00197F1F73C9A85E090E00197F1F708953C9A85E063
:2003C00090E00197F1F73D9883E090E00197F1F73C9885E090E00197F1F7089598E043E0A4
:2003E00050E025E030E03D9AFA013197F1F787FF02C03C9801C03C9AF9013197F1F73D9804
:20040000F9013197F1F7359BFECF880F915059F73D9A83E090E00197F1F73C9885E090E0FA
:200420000197F1F73D9885E090E00197F1F786B13D9AE5E0F0E03197F1F78295817091E046
:2004400089270895982F20E030E080E045E050E060E870E03D9AFA013197F1F73D98FA01D9
:200460003197F1F7359BFECF349B08C0FB01022E02C0F595E7950A94E2F78E2B2F5F3F4F58
:200480002830310539F73D9AE3E0F0E03197F1F7992311F03C9A01C03C98E5E0F0E03197FF
:2004A000F1F73D98E5E0F0E03197F1F73D9AE5E0F0E03197F1F70895289A209A08951F93B6
:2004C000CF93DF931F92CDB7DEB71FB7F8942898209A9AE09A95F1F700C0882311F02098ED
:2004E000289AE5E4EA95F1F70000189B80E0F5EEFA95F1F70000289A2098662319F0898385
:20050000DBDF89811FBF95E39A95F1F700000F90DF91CF911F9108952898209A8FE797E087
:200520000197F1F700C000009FB7F8942098289AEFEFF0E03197F1F700C0000083B19FBF6F
:20054000EFE7F6E03197F1F700C00000189B02C08170089581E0089560E08170B0CFCF936C
:20056000DF93C82FD8E08C2F8170F6DFC6958111C068D150C1F78C2FDF91CF9108958FEF45
:20058000EECFDF92EF92FF920F931F93CF93DF93E82EEB01C1DF81112BC080EFE0DFF12C89
:2005A00010E488EFD82ED10E81E0D6DF082F81E0D3DF882319F0002361F01CC0011109C0AC
:2005C0001E1528F0888180FF04C0E11611F0F12E01E0802FC1DF98819695011190689883D4
:2005E00011501D11E1CF21961111DBCF8F2D03C08FEF01C08EEFDF91CF911F910F91FF904F
:20060000EF90DF900895CF93DF93C82FCCDE8EEEE5DE8C2FE3DED2DEC6DE8FEEDFDE81E030
:2006200011DFC82FD0E0DC2FCC2780E00BDFC80FD11DC4DECE01DF91CF910895CF92DF9266
:20064000EF92FF92F82EAFDE8EEEC8DE8F2DC6DEB5DE8FE39CE90197F1F700C00000A3DE08
:200660008EEEBCDE80E0BADEA9DE9DDE8FEEB6DE81E0E8DEC82ED12CE12CF12CFE2CED2CD2
:20068000DC2CCC2481E0DEDEC80ED11CE11CF11CFE2CED2CDC2CCC2480E0D4DEC80ED11C68
:2006A000E11CF11C8BDEC701B601FF90EF90DF90CF900895FF920F931F93CF93DF938AEAA2
:2006C000A2DF8C018CEA9FDFEC0188E5B7DF20E030E0322F212F102F0027601B710B820B7D
:2006E000930B9E0140E050E05DD6F22E032F142FD52FC62FB72FF82FE92FA0E0DCD684F4DD
:200700002150310940485F4F6F4F7F4F8F4F9F4FF22E032F142FD52FC62FB72FF82FE92FED
:200720002F2D302F412F5D2F6C2F7B2F8F2F9E2F07E185D62053384F4F4F5F4F6F4F7F4F1D
:200740008F4F9F4FB901CA01DF91CF911F910F91FF9008952F923F924F925F926F927F9286
:200760008F929F92AF92BF92CF92DF92EF92FF920F931F93CF93DF93CDB7DEB767970FB6AD
:20078000F894DEBF0FBECDBF8AEA3DDF8C0188E555DF2B013C01C801A0E0B0E0BA2FA92F16
:2007A000982F8827481A590A6A0A7B0A84EA2BDF4C0188EA28DFFC01940140E050E060E0A5
:2007C00070E080E090E001E121D6F22E132F1A014B01898799839F0140E050E0C301B201C4
:2007E000E1D5B22EC32ED42EE52E062FB72FF82FE92FA0E060D654F4AFE348D6B22EC32E84
:20080000D42EE52E062FB72FF82FE92F2B2D3C2D4D2D5E2D602F7B2F8F2F9E2F06E00FD614
:2008200059016A01E62EF72F082FE92F2F2D312FA101B40189859981FF2E1E2F1ED6922E01
:200840003F8B4E8B59876A877B878C879D8782EADADE8C0186EAD7DEFC01980140E050E02F
:2008600060E070E080E090E000E1D0D529833E874F87588B698B272E382E892E9F0140E042
:2008800050E0C301B2018ED5122F432E542E652E762EB72FF82FE92FA0E00DD654F4AFE77D
:2008A000F5D5122F432E542E652E762EB72FF82FE92F212F342D452D562D672D7B2F8F2F3C
:2008C0009E2F07E0BCD559016A017B018C0129813E854F8558896989722D832D982DCDD53B
:2008E000562E672E782E892E88E42A8B3B8B4C8B5D8BA4DE5B016C01E12CF12C87016983F3
:20090000BA82CB82DC82ED82FE820F8318872A89E22F3B89F32F4C89142F5D89452E652D23
:20092000762D872D982DA0E0C6D57CF421503109404E5F4F6F4F7F4F8F4F9F4FF901142F94
:20094000452E562E672E782E892E9F01412F542D652D762D872D982D05E171D559016A017E
:200960007B018C0129813A814B815C8160E070E080E090E0C6D4A92CBF88CE88D984EA8429
:20098000FB840C851D858ED5F22E032F142FD52EE62EB72FF82FE92FA0E08DD584F42150A6
:2009A00030484F4F5F4F6F4F7F4F8F4F9F4FF22E032F142FD52EE62EB72FF82FE92F2F2DEE
:2009C000302F412F5D2D6E2D7B2F8F2F9E2F0FE036D5B901CA0167960FB6F894DEBF0FBEB7
:2009E000CDBFDF91CF911F910F91FF90EF90DF90CF90BF90AF909F908F907F906F905F9096
:200A00004F903F902F9008950895E0910B01F0910C01309709F009940895E2E4F1E080E033
:200A20009191890F91E0EA34F907D1F780934A010895CF93DF93EC0190935C0180935B01FA
:200A400045E050E0BC018BE491E04DD580914B018234A1F082E480934B0187E080934C0152
:200A60008AE080934D0110924E0182E080934F0145E050E0BE018BE491E057D5E09109015A
:200A8000F0910A01309719F080914C01099580914F0180935D0180914D0180935101DF91F8
:200AA000CF91089590915D0190934201909151019093430180934401809153018093450164
:200AC00070934601609347015093480140934901A4DF9BCF9091520180915101981314C005
:200AE000E2E5F1E080E09191890F91E0EA35F907D1F790915A01891749F040E050E0BA018C
:200B000081E0D0DF83E0089582E0089580E0089540E050E0BA0184E6C5CF0F931F93CF930A
:200B2000DF931F92CDB7DEB72091560160915701862F90E0A0E0B0E077276627922B20915A
:200B40005901622B20915801722B60933E0170933F01809340019093410120915301213182
:200B600009F4BEC180F5293009F43DC1C0F4243009F4EDC168F4213009F451C0223009F077
:200B8000E1C140E050E0BA0184E68CDF82E0E2C1253009F44BC0263009F481C0D3C12E30EB
:200BA00009F4CCC040F42A3009F479C12D3009F0C9C18DE0CFC12F3009F4F8C0203109F0AC
:200BC000C1C180E1C7C12A3209F492C1A0F42D3109F48AC140F4223109F484C12C3109F0A5
:200BE000B1C18CE1B7C1283209F480C1293209F0A9C189E2AFC12D3209F47EC140F42B3241
:200C000009F478C12C3209F09DC18CE2A3C1283809F474C12E3F09F095C18EEF9BC140E0D0
:200C200050E0BA0184E63EDF81E094C1209155012111DDC0209154012630F1F068F42430C9
:200C400091F0253051F560932D0170932E0180932F019093300121C02730B9F02C38E9F46C
:200C6000609339011AC06093290170932A0180932B0190932C0111C0609331017093320167
:200C8000809333019093340108C0609335017093360180933701909338013ADF5AC180919E
:200CA00055018111A4C080915401863049F178F4843079F1E0F4813009F099C0409125013A
:200CC00050912601609127017091280104C18C3849F1843C51F1873009F089C04091350104
:200CE000509136016091370170913801F4C040912D0150912E0160912F0170913001EBC0B8
:200D000040913101509132016091330170913401E2C04091290150912A0160912B0170919A
:200D20002C01D9C040913901D3C040913A0150913B0160913C0170913D01CDC02091550125
:200D4000213069F160F1223051F520915401222319F02F3749F123C0611571058105910520
:200D600039F444981092080140E050E0BA010DC0613071058105910551F4449A81E080932D
:200D8000080141E050E060E070E084E60CC044981092080140E050E0BA0186E604C040E051
:200DA00050E0BA0183E07EDE8EE0D4C080915501813021F028F0823059F0CBC08FE0CAC0C7
:200DC00080915401811108C040915001417080C080915401882321F08F3709F4BAC007C01A
:200DE0004091080175C020915501222331F040E050E0BA0184E056DEACC02091540121340D
:200E000019F118F4203431F0F2CF223459F12C34B9F1EDCF00914B0110E020E030E06017CC
:200E200071078207930761F060934B011982498120915B0130915C01C901840F911D63D3B6
:200E400040E050E0BA0147C000914C0110E020E030E0601771078207930791F360934C01CC
:200E600021E01BC000914D0110E020E030E0601771078207930721F360934D0122E00DC081
:200E800000914F0110E020E030E06017710782079307B1F260934F0124E02983C8CF809121
:200EA00055018111A4CF80915401813479F030F4803409F09CCF40914B010AC0823469F021
:200EC0008C3409F094CF40914F0102C040914C0150E060E070E084E68ECF40914D01F8CF88
:200EE00081E138C082E136C08DE134C088E232C08AE230C08BE22EC08DE22CC08091540109
:200F000081111BC080915D01809342018AE080934301109244011092450185E1809346014F
:200F200086E58093470182E38093480180E38093490180934A0169DD0CC040E450E360E261
:200F400070E1C9CF40E050E0BA0182E054CF84E001C080E00F90DF91CF911F910F91089537
:200F60008091110190911201891B8F7008959091160180911701981761F0909117019F5F42
:200F80009F70E92FF0E0E950FE4F808190931701089580E00895909116019F5F9F70E92FA1
:200FA000F0E0E950FE4F808390931601089590911501E92FF0E0E25AFE4F80819F5F909337
:200FC0001501089580910E0180FD0BC080910E01816080930E015A9A10921501E8DF80934D
:200FE000C6000895882321F08091C100806803C08091C1008F778093C1000895882321F050
:201000008091C100806403C08091C1008F7B8093C10008951F920F920FB60F9211242F935B
:201020003F934F935F936F937F938F939F93AF93BF93EF93FF9385E0809310019091C00090
:2010400080910F01892B80930F018091C600A3DFFF91EF91BF91AF919F918F917F916F913F
:201060005F914F913F912F910F900FBE0F901F9018951F920F920FB60F9211242F933F9328
:201080004F935F936F937F938F939F93AF93BF93EF93FF9380910E0180FF0EC080911501D8
:2010A000893038F080910E018E7F80930E015A9803C07DDF8093C600FF91EF91BF91AF9176
:2010C0009F918F917F916F915F914F913F912F910F900FBE0F901F90189587E08093C400AB
:2010E000E1ECF0E080818861808381E07BDF81E085DF10920F010895CF92DF92EF92FF92B3
:201100000F931F93CF93DF931F92CDB7DEB790911301809114019817F1F080910E0180FD55
:201120001AC0209114012F5F2F7089E0289FF0011124E95FFD4F80E090E03191DC01A25A8D
:20114000BE4F3C93019689309105B9F7209314011092150137DF80910E0183FD4EC08091C8
:20116000160190911701891B8F70893008F445C0409111014F5F4F70042F10E099E0499FEE
:2011800060011124F601E959FE4F6F017F01F9E0EF0EF11C4983EBDEF60181936F01498186
:2011A000EE15FF05B9F7F9E04F9F9001112429593E4F80E090E050E0F901E80FF91F6081F2
:2011C000560F019688309105B9F789E0809FF001819FF00D1124E959FE4F8085581308C083
:2011E00080910E01886080930E014093110105C080910E01806180930E010F90DF91CF9189
:201200001F910F91FF90EF90DF90CF90089580911001882341F080911001815080931001F0
:2012200010920D01089580910D01811107C0809116018093170181E080930D010895809166
:2012400012018F5F8F7029E0829FC001112489599E4F0895809112018F5F8F7080931201CB
:201260007FDE811105C090910E01977F90930E010895CF93FC01609113016F5F6F7029E08B
:20128000629FC0011124895F9D4F20E030E070E0462F50E0C081DC01A20FB31FCC93A1914C
:2012A0007A0F2F5F3F4F28303105A1F789E0849FF001859FF00D1124E95FFD4F7087609312
:2012C0001301CF91089590E08B309105B0F4FC01E65EFF4F099488E611C085E40FC082E291
:2012E0000DC08AE10BC081E109C08DE007C088E005C084E003C082E001C084E38093C400D7
:201300000895DF93CF931F930F939A9DF02D219FF00D8B9DF00D8A9DE02DF10D039FF00D01
:20132000029FE00DF11D4E9DE00DF11D5E9DF00D4F9DF00D7F936F93BF92AF925F934F93D0
:20134000D501C5D08B01AC01D701C1D0EB01E80FF91FD6011FD02F913F91D601B8D0C60FFB
:20136000D71FE81FF91FAF91BF9114D02F913F91AED0C60FD71FE81FF91FD601A8D0E60FA8
:20138000F71F9801BE01CF0111240F911F91CF91DF9108959CD0460F571FC81FD91F08F40B
:2013A0003196089597FB57FF0BC09F938F9308D06E1B7F0BAF91BF918A0B9B0B0895E894F3
:2013C000DF93CF93FC01DB0182D07F936F93E9019A01AC01BF93AF933F932F93DF0177D079
:2013E00026F46C1B7D0B820B930B9E01EB01FC01D1DFAF91BF912F913F91CCDFBE01CF0107
:20140000F9012F913F91CF91DF9108950F93083090F0982F872F762F652F542F432F322F6F
:2014200022270850F4CF220F331F441F551F661F771F881F991F0A95B2F70F91089597FB5D
:2014400010F8169400080F93083098F00850232F342F452F562F672F782F892F902DF4CFF5
:201460000594979587957795679557954795379527950A95AAF70F9108952A0D3B1D4C1DBE
:201480005D1D6E1D7F1D801F911F08950024A7FD00942A0F301D401D501D601D701D801D6C
:2014A000901D08952A193B094C095D096E097F09800B910B08950024A7FD00942A1730050B
:2014C0004005500560057005800590050895A29FB001B39FC001A39F01D0B29F700D811D5D
:2014E0001124911D0895DC01CB01FC01F999FECF06C0F2BDE1BDF89A319600B40D92415017
:201500005040B8F70895262FF999FECF92BD81BDF89A019700B4021639F01FBA20BD0FB614
:20152000F894FA9AF99A0FBE0895DC01CB0102C02D9105D041505040D8F70895262FF9991C
:1C154000FECF1FBA92BD81BD20BD0FB6F894FA9AF99A0FBE01960895F894FFCFAC
:00000001FF
