:100000000C943F000C945C000C945C000C945C001D
:100010000C945C000C945C000C945C000C94F30455
:100020000C945C000C945C000C945C000C94D10467
:100030000C945C000C94E8040C94C2040C945C00D6
:100040000C945C000C945C000C9422030C945C00F7
:100050000C944B030C945C000C945C000C945C00BE
:100060000C945C000C945C009704980499049A0426
:100070009B049C049D049E04A104950496041124F1
:100080001FBECFEFD8E0DEBFCDBF11E0A0E0B1E0F2
:10009000ECE5F6E102C005900D92A030B107D9F76A
:1000A00022E0A0E0B1E001C01D92A53CB207E1F75B
:1000B0000E94300A0C942C0B0C94000097E890934B
:1000C0007A0010927B0080937E0010927C00109248
:1000D0003D0110923C010895877080937C0080E17F
:1000E0008A95F1F700C080917A00806480937A004D
:1000F00080917A0086FDFCCF809178009091790004
:1001000008958BE987BD16BC84B5826084BD85B532
:10011000856085BDEEE6F0E0808182608083E1E865
:10012000F0E0808182618083EFE6F0E0808183608F
:100130008083109285001092840080E29EE4909368
:1001400087008093860080ED97E0909389008093EC
:100150008800E0EBF0E0808183608083E1EBF0E0F9
:10016000808189608083E0E7F0E080818260808325
:1001700080EA8093B3000895CF93DF93EC019093CE
:100180007A018093790145E050E0BC0189E691E075
:100190000E94DE0A809169018234A9F082E4809392
:1001A000690187E080936A0183E080936B0110927C
:1001B0006C0182E080936D0145E050E0BE0189E66C
:1001C00091E00E94140BE0910001F0910101309741
:1001D00019F080916A01099580916D0180937B01EE
:1001E00080916B0180936F01DF91CF910895909181
:1001F0007B019093600120916F01209361018093B6
:100200006201809171018093630170936401609336
:1002100065015093660140936701E1E6F1E080E0FB
:1002200001C09191890F91E0E836F907D1F78093E9
:100230006801E0910201F0910301309709F00994FF
:1002400008958091700190916F01891711F082E0FB
:100250000895E1E7F1E090E001C08191980F81E01D
:10026000E837F807D1F780917801891741F040E02D
:1002700050E0BA0181E00E94F70083E0089580E039
:1002800008951F93CF93DF931F92CDB7DEB7809170
:1002900074014091750150E060E070E0BA015527AB
:1002A0004427782B80917701482B80917601582B39
:1002B00040935C0150935D0160935E0170935F0118
:1002C000109171011D3051F078F01E3120F51C3174
:1002D00028F41E3009F4BEC0133118F5812F0F9099
:1002E000DF91CF911F910895153009F4BEC008F039
:1002F00046C0123021F0143089F3113091F440E0FF
:1003000050E0BA0184E60E94F700812F0F90DF9140
:10031000CF911F910895183861F01E3FF9F21832FD
:10032000E9F240E050E0BA0182E00E94F70010E0FC
:10033000D5CF109172011111B9C080917B018093CA
:10034000600183E080936101109262011092630169
:1003500085E18093640186E58093650182E3809363
:10036000660180E38093670180936801E091020158
:10037000F0910301309709F4B1CF0995AFCF19304F
:1003800009F43DC01A3009F1163059F61091730185
:10039000111184C080917201863009F40BC108F0FC
:1003A00095C0843009F42DC108F01FC1813009F0D7
:1003B00086C0409143015091440160914501709184
:1003C000460184E60E94F70089CF10917301111154
:1003D00065C080917201813409F4BBC008F493C0F8
:1003E000823409F4C9C08C3409F069C040916D01B0
:1003F00050E060E070E084E60E94F7006FCF10915B
:10040000730111114BC080917201813409F491C0C4
:1004100008F47EC0823409F49FC08C3409F04FC0C8
:1004200080916D0190E0A0E0B0E0481759076A079D
:100430007B0709F464CF40936D0184E089832981AF
:100440008091790190917A01642F820F911D0E9411
:10045000FC0A55CF80917301811140CF40E050E0FC
:10046000BA0183E00E94F70039CF10917301111196
:1004700015C080917201863009F48AC0D8F58430A5
:1004800009F47DC0853009F03ACF40934B01509379
:100490004C0160934D0170934E0131CF40E050E02C
:1004A000BA0184E00E94F70010E018CF40E450E366
:1004B00060E270E184E60E94F70010E00FCF40E0B8
:1004C00050E0BA0184E00E94F70008CF8C3809F4AC
:1004D00089C0843C09F47AC0873089F74091530180
:1004E00050915401609155017091560184E60E942B
:1004F000F700F4CE873009F454C08C3809F0FFCEF1
:1005000040935701FCCE8034D1F64091690170CF01
:100510008034A9F68091690190E0A0E0B0E048172E
:1005200059076A077B0709F4EACE409369011982EB
:1005300086CF80916A0190E0A0E0B0E048175907AB
:100540006A077B0709F4DBCE40936A0181E0898367
:1005500076CF40916A014CCF80916B0190E0A0E092
:10056000B0E0481759076A077B0709F4C8CE4093E3
:100570006B0182E0898363CF40916B0139CF409357
:100580004701509348016093490170934A01B7CEE7
:1005900040934F0150935001609351017093520169
:1005A000AECE409353015093540160935501709324
:1005B0005601A5CE40914F015091500160915101DB
:1005C0007091520184E60E94F70088CE4091580154
:1005D0005091590160915A0170915B0184E60E942B
:1005E000F7007CCE4091570103CF40914B015091D1
:1005F0004C0160914D0170914E0184E60E94F7001C
:100600006DCE409147015091480160914901709130
:100610004A0184E60E94F70061CE80910501816065
:10062000809305015A9A10920C0180910C01E82FD9
:10063000F0E0E458FE4F90818F5F80930C0190931F
:10064000C60008951F920F920FB60F9211248F9338
:100650009F93EF93FF9385E0809307018091C00003
:1006600090910601892B809306019091C60080919C
:100670000D018F5F8F71E82FF0E0EB5EFD4F9083EF
:1006800080930D01FF91EF919F918F910F900FBE7D
:100690000F901F9018951F920F920FB60F92112472
:1006A0008F939F93EF93FF938091050180FF10C07C
:1006B00080910C018930A8F480910C01E82FF0E0C2
:1006C000E458FE4F90818F5F80930C019093C60099
:1006D000FF91EF919F918F910F900FBE0F901F9000
:1006E0001895809105018E7F809305015A98F0CF6F
:1006F0001092C50089E08093C400E1ECF0E08081B5
:100700008869808380818068808380818064808321
:10071000109206010895CF9390910A0180910B01E8
:10072000981759F18091050180FD27C060910B0158
:100730006F5F6F70862F90E09C01220F331F220F96
:10074000331F220F331F280F391F2B5C3D4FA90188
:10075000475F5F4FF901DF01A21BB30B8191A458E2
:10076000BE4F8C93E417F507B1F760930B0110921D
:100770000C018091050180FF59C08091050183FD26
:1007800053C080910D0190910E01891B8F718930AA
:1007900008F44AC0C0910801CF5FCF702C2F30E021
:1007A000A901440F551F440F551F440F551FFA014F
:1007B000E20FF31FEB57FE4FBF01675F7F4F10C083
:1007C00080910E018F5F8F71A82FB0E0AB5EBD4F9F
:1007D0009C9180930E01892F8193E617F70759F0BA
:1007E00090910D0180910E019813EACF80E08193E2
:1007F000E617F707A9F789E0C89FF0011124EB5726
:10080000FE4F88E090E06191960F8150E1F7240F50
:10081000351FF901EB57FE4F8085891751F0809104
:100820000501806180930501CF9108950E940D0319
:10083000A4CF80910501886080930501C0930801D1
:10084000F3CF8091070181110CC0809104018111C7
:1008500007C080910D0180930E0181E08093040117
:10086000089580910701815080930701109204013F
:100870000895809109018F5F8F7090E09C01220F95
:10088000331F220F331F220F331F820F931F8B57EB
:100890009E4F0895809109018F5F8F7080930901A9
:1008A0008091080190910901891B8F7029F4909122
:1008B0000501977F909305010895FC0140910A017D
:1008C0004F5F4F70642F70E089E0489FD001112482
:1008D000AB5CBD4F9F01285F3F4F80E090819D93AF
:1008E0009191890FE217F307C9F7FB01EE0FFF1F84
:1008F000EE0FFF1FEE0FFF1F6E0F7F1FFB01EB5C64
:10090000FD4F808740930A01089590E08B30910558
:1009100020F088E08093C4000895FC01EC5CFF4F58
:1009200088E08093C4000C949C0A0895089508956B
:100930000895089508950895089508951092C500A2
:100940000895089580E691E00C945D0410922D01C5
:100950000E94210480910F01909110018333910531
:1009600030F401969093100180930F01089595B192
:1009700088E0892785B981E090E090931001809309
:100980000F0108951F920F920FB60F9211248F93AB
:1009900081E080932D018F910F900FBE0F901F90DB
:1009A00018951F920F920FB60F9211248F939F9359
:1009B00041988091380190913901909389008093FA
:1009C00088009F918F910F900FBE0F901F901895E8
:1009D0001F920F920FB60F921124419A0F900FBEE3
:1009E0000F901F9018951F920F920FB60F9211241F
:1009F0002F933F938F939F9380913601909137016E
:100A0000209134013091350101978217930708F442
:100A100042C080911901209134013091350190E05C
:100A200001978217930708F45F9880911A0120912B
:100A300034013091350190E001978217930708F453
:100A4000289880911B01209134013091350190E06C
:100A500001978217930708F4299880911C0120912F
:100A600034013091350190E001978217930708F423
:100A70002A98809134019091350101969093350127
:100A8000809334019F918F913F912F910F900FBED2
:100A90000F901F9018955F9A289A299A2A9A109277
:100AA000350110923401E5CF0F931F93CF93DF935D
:100AB00044E050E066E170E089E191E00E94DE0AE6
:100AC00044E050E06AE170E085E191E00E94DE0AD6
:100AD00086E290E00E94F60A90933B0180933A01EF
:100AE00080913A0190913B0190938700809386001A
:100AF00080E290E00E94EE0A05E211E090E0F80149
:100B00009183808381E290E00E94EE0ACDE1D1E002
:100B100090E09983888382E290E00E94EE0A90E060
:100B2000F8019383828383E290E00E94EE0A90E0D2
:100B30009B838A8384E290E00E94EE0A90E0F801B1
:100B40009583848385E290E00E94EE0A90E09D8385
:100B50008C8386E290E00E94EE0A90E0F801978391
:100B6000868387E290E00E94EE0A90E09F838E8366
:100B70008AE390E00E94F60A909333018093320159
:100B80008EE390E00E94F60A909331018093300149
:100B900082E490E00E94F60A90932F0180932E0148
:100BA0008EE290E00E94EE0A90E0909337018093ED
:100BB000360180912E0190912F01909339018093FD
:100BC0003801A5E1B1E08C91E1E1F1E0808311967B
:100BD0008C911197818312968C9112978283139630
:100BE0008C918383DF91CF911F910F910895CF93C3
:100BF000DF938091050183FD03C0DF91CF910895BC
:100C00000E943904DC01E0E7F1E08D91819381E0FD
:100C1000E937F807D1F70E944A0480910501877FE0
:100C2000809305010E9421018111E7CF0E944101BB
:100C30008F3009F47DC0883209F454C08E30E9F653
:100C400080917301823009F442C108F4DCC0833022
:100C500009F417C1843009F089C08091720188239A
:100C600009F4D0C1813009F081C0809115018093D1
:100C700011018091160180931201809117018093D8
:100C80001301809118018093140140915C015091EF
:100C90005D0160915E0170915F0141305105610518
:100CA000710509F4C8C30CF4A0C3423051056105B5
:100CB000710509F4A5C3433051056105710509F0BB
:100CC0005DC0449845985B985C9A40915C01509156
:100CD0005D0160915E0170915F0184E6DF91CF91CB
:100CE0000C94F70080917301823009F432C108F44A
:100CF0004AC0843109F450C1853109F43EC18330C2
:100D000009F07BCF80917201882309F4CBC1813037
:100D100009F073CF90915C01692F80915D019093F0
:100D200023018093240187E290E00E94FC0ACDCF4A
:100D300080917301813009F440C08230B9F4809110
:100D40007201813009F455C108F459C1823009F4A7
:100D500053C1833009F088C04091180150E060E031
:100D600070E084E6DF91CF910C94F70040915C0134
:100D700050915D0160915E0170915F0186E6DF91A7
:100D8000CF910C94F700882309F4CFC0813009F08B
:100D900034CF80917201882309F4C2C1813009F0F7
:100DA0002CCF90915C01692F80915D0190931F0180
:100DB0008093200183E290E0B8CF8091720182306D
:100DC00009F495C108F00AC1882309F477C181307C
:100DD00009F04AC020911A01409127015091280141
:100DE00030E0241B350B64E6629FC001639F900DC9
:100DF000112460911F0170912001641B750B0E94EA
:100E0000690AAB01ACCF813009F0B0CF809172019B
:100E1000813009F4D5C108F4B1C1823009F48CC124
:100E2000833011F5C0912B01D0912C01A0912301A9
:100E3000B0912401AC1BBD0B20915C0130915D0190
:100E400040915E0150915F010E94A20A24E630E0C9
:100E500040E050E00E947D0AC20FC0931C016091E7
:100E60001C0189E190E061CF40915C0150915D01EE
:100E700060915E0170915F0183E0DF91CF910C94EE
:100E8000F70080917201811171CF80915C01909186
:100E90005D01A0915E01B0915F0181309105A105D6
:100EA000B10509F432C282309105A105B10509F4FA
:100EB0001BC2892B8A2B8B2B09F406C244E050E01D
:100EC00060E070E084E0DF91CF910C94F7008091B6
:100ED0007201813009F4D8C108F4B5C1823009F437
:100EE00091C1833009F0C0CF809118018093140123
:100EF00040915C0150915D0160915E0170915F01D4
:100F0000411551056105710509F49AC24130510539
:100F10006105710509F090C05C9A81E08093180129
:100F2000609118018DE190E000CF809172018823DB
:100F300009F493C0813009F060CE90915C01692F73
:100F400080915D0190931D0180931E0181E290E0EC
:100F5000ECCE80917201882309F473C0813009F0CE
:100F60004CCE90915C01692F80915D01909321019D
:100F70008093220185E290E0D8CE80915C0190912F
:100F80005D01909337018093360160913601709135
:100F900037018EE290E0C9CE80917201813009F470
:100FA000DAC108F4C3C1823009F4EAC1833009F020
:100FB000DDCE80915C0190915D0190932F01809333
:100FC0002E01909339018093380160912E01709128
:100FD0002F0182E490E00E940E0B77CE833009F45B
:100FE00048C08A3009F040CF81E00E946C00AC011B
:100FF000B6CE40911601B2CE40911701AFCE4091CE
:101000001501ACCE40915C0150915D0160915E0193
:1010100070915F01413051056105710509F4DBC133
:10102000423051056105710509F4BFC141155105F3
:101030006105710509F4D4C184E0DF91CF910C946E
:10104000F70090915C01692F80915D0190932901D7
:1010500080932A0184E290E068CE90915C01692F30
:1010600080915D01909325018093260180E290E0BC
:101070005CCE20911C0140912B0150912C0130E05D
:10108000241B350B64E6629FC001639F900D112401
:101090006091230170912401641B750B0E94690A01
:1010A000AB015DCE90915C01692F80915D019093C1
:1010B0002B0180932C0186E290E037CE209119011C
:1010C000409125015091260130E0241B350B64E648
:1010D000629FC001639F900D112460911D0170916A
:1010E0001E01641B750B0E94690AAB0138CE20916A
:1010F0001B014091290150912A0130E0241B350B3E
:1011000064E6629FC001639F900D112460912101EC
:1011100070912201641B750B0E94690AAB011FCEFE
:1011200090915C01692F80915D01909327018093DC
:10113000280182E290E0F9CDC0912901D0912A01E5
:10114000A0912101B0912201AC1BBD0B20915C014B
:1011500030915D0140915E0150915F010E94A20AB1
:1011600024E630E040E050E00E947D0AC20FC093C8
:101170001B0160911B0188E190E0D7CDC091250152
:10118000D0912601A0911D01B0911E01AC1BBD0B99
:1011900020915C0130915D0140915E0150915F01B1
:1011A0000E94A20A24E630E040E050E00E947D0A5E
:1011B000C20FC09319016091190186E190E0B5CD8D
:1011C000C0912701D0912801A0911F01B091200169
:1011D000AC1BBD0B20915C0130915D0140915E0123
:1011E00050915F010E94A20A24E630E040E050E006
:1011F0000E947D0AC20FC0931A0160911A0187E113
:1012000090E093CD809117018093130140915C0190
:1012100050915D0160915E0170915F014115510532
:101220006105710509F4F5C041305105610571058D
:1012300009F002CF5B9A81E080931701609117015A
:101240008CE190E072CD8091150180931101409165
:101250005C0150915D0160915E0170915F014115EB
:1012600051056105710509F4DCC041305105610586
:10127000710509F0E1CE449A81E0809315016091F7
:1012800015018AE190E051CD9091160190931201E1
:1012900040915C0150915D0160915E0170915F0130
:1012A000411551056105710509F4D2C04130510560
:1012B0006105710509F0C0CE459A809316016091D1
:1012C00016018BE190E031CD809132019091330194
:1012D000909339018093380140E050E0BA0184E6F0
:1012E000DF91CF910C94F70080912E0190912F0106
:1012F000909339018093380142E050E060E070E063
:1013000084E6DF91CF910C94F700809130019091A9
:101310003101909339018093380141E050E060E061
:1013200070E084E6DF91CF910C94F70080915C012E
:1013300090915D0190933B0180933A0190938700D7
:101340008093860060913A0170913B0186E290E0C3
:101350000E940E0BBACC80915C0190915D0190933C
:101360003301809332019093390180933801609169
:101370003201709133018AE390E00E940E0BA5CCFC
:1013800080915C0190915D019093310180933001D7
:10139000909339018093380160913001709131014F
:1013A0008EE390E00E940E0B90CC80911101882377
:1013B00009F43FC0449A80911201882341F1459A73
:1013C00080911301882309F15B9A809114018111A6
:1013D0007BCC5C987ACC449A459A5B9A5C9A75CCA3
:1013E000449845985B985C9870CC4115510561050F
:1013F000710509F0C3CC449A45985B985C9865CC1C
:10140000449845985B9A5C9860CC5B98DECF459891
:10141000D7CF5B9810921701609117018CE190E093
:1014200084CC449810921501609115018AE190E0F6
:101430007CCC4498C0CF4498459A5B985C9845CC46
:101440005C9810921801609118018DE190E06DCCCC
:10145000459810921601609116018BE190E065CCE1
:10146000529A579A209A219A229A3C9A3D9A539AD4
:10147000549A239A249A399A3A983B98259A3898FC
:10148000559A569A0E9481000E9478030E94540542
:1014900082E00E945E0085E894E0909301018093D1
:1014A000000182EA94E0909303018093020180E1BD
:1014B00090E00E94BC002D98789404C00E948B0399
:1014C0000E94F70580912D018823C1F30E94A60494
:1014D000F5CFAA1BBB1B51E107C0AA1FBB1FA61754
:1014E000B70710F0A61BB70B881F991F5A95A9F7CD
:1014F00080959095BC01CD010895052E97FB1EF4B3
:1015000000940E94940A57FD07D00E94AD0A07FC80
:1015100003D04EF40C94940A509540953095219543
:101520003F4F4F4F5F4F089590958095709561950F
:101530007F4F8F4F9F4F0895EE0FFF1F0590F4913F
:10154000E02D09940E94CF0AA59F900DB49F900DA5
:10155000A49F800D911D11240895A1E21A2EAA1BAB
:10156000BB1BFD010DC0AA1FBB1FEE1FFF1FA21753
:10157000B307E407F50720F0A21BB30BE40BF50B50
:10158000661F771F881F991F1A9469F760957095D9
:10159000809590959B01AC01BD01CF010895A29F5C
:1015A000B001B39FC001A39F700D811D1124911D37
:1015B000B29F700D811D1124911D0895DC01CB0196
:1015C000FC01F999FECF06C0F2BDE1BDF89A319653
:1015D00000B40D9241505040B8F70895F999FECFEC
:1015E00092BD81BDF89A992780B50895A8E1B0E031
:1015F00042E050E00C94E00A262FF999FECF92BD0C
:1016000081BDF89A019700B4021639F01FBA20BDC7
:101610000FB6F894FA9AF99A0FBE08950196272FFB
:101620000E94FD0A0C94FC0ADC01CB0103C02D9141
:101630000E941F0B41505040D0F70895262FF99972
:10164000FECF1FBA92BD81BD20BD0FB6F894FA9AA5
:0C165000F99A0FBE01960895F894FFCFA0
:00000001FF
